:020003000901F1
:0200050008D918
:0200070008717E
:0200090007717D
:1007D000094AFEFDFBF7EFDFBF7FFF10363F065BE8
:1007E0004F666D7D077F6F777C395E7971085A009F
:1007F00001020304050607015900012B00026200F3
:1008000000026400000229000F022C000F026800A1
:100810000F026A000F0221000002570000022700A9
:0D0820000102660000022300000225000016
:100901007F0112019B7F0212019B7F0312019B1247
:0A091100000E12091BE4FF0202248D
:1008D900E4FAF9F8E5352401F535EA3534F534E972
:1008E9003533F533E83532F532120333E4FBFA7D5B
:0808F9000A7F021202D480D82C
:10087100E4FAF9F8E5492401F549EA3548F548E98A
:100881003547F547E83546F546E5286401452770C3
:100891000512048E80DAE4FBFAAD6BAC6AAF69AE87
:0608A1006812068780CA00
:10077100052BE52BB41434120703E4F52BE52A15F8
:100781002A70021529E52D152D7002152CC3E529B6
:1007910064809480500685682985692AC3E52C64A4
:1007A1008094805006856A2C856B2DE4FBFAFD7FD1
:1007B100011202D4E4FAF9F8E5562401F556EA35B6
:0F07C10055F555E93554F554E83553F55380A1F6
:1008A7007C007D0A1205FC74362FF8E6F5A07F055B
:0208B7007E00C1
:1008B900E4FDFCC3ED9FEC9E5015E4FAFB0BBB0075
:0F08C900010AEB64784A70F50DBD00010C80E464
:0108D80022FD
:100687008E0F8F108C118D128A138B14C2B0D2B1BA
:10069700C2B21208A7D2B0D2B1C2B2AE0FAF107CAD
:1006A700007D0A1205FC74362D1208B1C2B0C2B122
:1006B700C2B2AE11AF121208A7D2B0C2B1C2B2AE67
:1006C70011AF127C007D0A1205FC74362D1208B199
:1006D700C2B0C2B1D2B2AE13AF141208A7D2B0C221
:1006E700B1D2B2AE13AF147C007D0A1205FC74368A
:0C06F7002DF8E6F5A07F057E000208B992
:10033300E4FFFEF50E7590F0E59064F06011AF9068
:1003430075900FE590640F6002AE90EF2EF50EE509
:100353000EB4EE28E52245217022F5590522E52247
:10036300700205210569E56970020568E4F527F562
:1003730028E590640F700302048D80F5E50EB4EE5A
:100383001DE522640145217015F5590522E522700A
:10039300020521E590640F700302048D80F5E50EDC
:1003A300B4EE21E522640245217019F559F521F5D2
:1003B30022F52775280112000EE590640F700302E1
:1003C300048D80F5E50EB4ED2F1559E52264014542
:1003D30021700A0569E569701405688010E52264D7
:1003E3000245217008056BE56B7002056AE59064B0
:1003F3000F700302048D80F5E50EB4EB2E0559054D
:1004030059E52264014521700AE5691569701415DF
:10041300688010E522640245217008E56B156B7056
:1004230002156AE590640F606180F8E50EB4E70C8D
:1004330015591559E590640F605080F8E50EB4DE48
:1004430013E5674566700DF566756701E590640F02
:10045300603880F8E50EB4DE14E567640145667024
:100463000CF566F567E590640F601F80F8E50EB440
:10047300BE0B75590EE590640F600F80F8E50EB45E
:0A0483007E0875590DE590B40FFBDB
:01048D00224C
:10091B00758911758D3C758DB0D2AFD2ABD28E224D
:03001B0002082EAA
:10082E00C0E0C0F0C083C082C0D075D000C000C090
:10083E0001C002C003C004C005C006C007758D3CD0
:10084E00758DB07F031202ADD007D006D005D0044F
:10085E00D003D002D001D000D0D0D082D083D0F03F
:03086E00D0E032A5
:10070300E56745667057E5577063E558146016143E
:10071300602814603324037054D281D282D283D2EE
:1007230084B285800AD281D282D283D285B284B246
:1007330080D287D2B3B286B2B422D280D281D2849D
:10074300D285B283B282800CD280D282D284D28507
:10075300B283B281D2B4D286B2B3B28722D285D267
:0E07630082B283B280D2B3D286B2B4B2872201
:10048E00852962852A63852C64852D65E567456619
:10049E006003020563E557600302056FE5581460BB
:1004AE003E14606014700302053F240360030205CE
:1004BE006FD3E5659403E56464809480500C7525D4
:1004CE0000752601755700755801E56324FDFFE59B
:1004DE006234FFFE7B017A00AD65AC6402056CD31D
:1004EE00E5659403E56464809480400AE4F525F59F
:1004FE0026F5577558027B017A00AD65AC64AF6383
:10050E00AE62805AD3E5639403E5626480948050B2
:10051E000C752300752401755700755803E5652485
:10052E00FDFDE56434FFFC7B017A00AF63AE6280B3
:10053E002DD3E5639403E562648094804009E4F56D
:10054E0023F524F557F5587B017A00AD65AC64AF01
:10055E0063AE6280097B017A00E4FDFCFFFE1206A9
:02056E008722E2
:0D000E0085682985692A856A2C856B2D225D
:03000B00020023CD
:10001E00C2AF80FE3212002285D00B75D008FAC214
:10002E008CE58A24F7F58AE58C34D8F58CD28CECE5
:10003E00246DF8E6BC030274FFC39581B41400402E
:10004E00CF7904781516E608700BC2AFE630E103DF
:10005E004418F6D2AF08D9EDEA8BD0300003D201A6
:10006E0022D50DFAC0E0C0D0C0F0C083C082C0005F
:10007E00C001C002C003C004C005C006C007E50C25
:10008E00232416F87440C2AF46F6D2AFD200E50C68
:10009E00FF232416F80F0808EFB50C0610010343D2
:1000AE008701BF04047F007816E630E4E800E50C13
:1000BE00C39F5020050C746C250CF8E6FDA6810834
:1000CE00E6AE0CBE030274FFCDF8E86D60E008E604
:1000DE00C0E080F6E50CD39F4027E50C246DF8E6D2
:1000EE00AE0CBE030274FFFD18E6CDF8E5816D601F
:1000FE0006D0E0F61880F5E50C246CC8F6150C80D9
:10010E00D3750D05E50C232416F87F04C2AFE61057
:02011E00E61EDB
:1001200030E00310E20C7F0030E10730E3047F0889
:1001300054F4C2E7C6D2AF54804207C20022F6D2BE
:10014000AFD007D006D005D004D003D002D001D064
:1001500000D082D083D0F0D0D0D0E0C20022786C22
:10016000A68174036006FF0876FFDFFB7F04E47856
:1001700015F608F608DFFA78167630900003740159
:1001800093C0E0E493C0E0750D05438901758AF0E2
:0B019000758CD8D28CD2AFD2A922030C
:10019B00EFD3940340037FFF2274162F2FF8E62032
:1001AB00E5F4C2AFE64430F6D2AFAE0CEEC39F50CF
:1001BB00210E746C2EF8E6F908E618BE030274FFE4
:1001CB00FDED69600909E71919F7090980F316169E
:1001DB0080DAEED39F400405810581EED39F402248
:1001EB00746C2EF808E6F9EEB50C02A98118060618
:1001FB00E6FDED6960091919E70909F71980F31E86
:10020B0080D9EF246CF8E604F8EF2F0490000393E9
:09021B00F608EF2F93F67F002294
:10022400EFD3940340037FFF22EF232416F8E63034
:10023400E5F4C2AFE6548CF6D2AFE50CB5070A7408
:100244006C2FF8E6F58102009A502E746D2FF8E6B3
:10025400BF030274FFFD18E6F9746C2FF8FBE6FC8B
:10026400E96C6008A805E7F61D1980F4A803A60543
:100274001FE50CB507E37F0022746D2FF8E6FD1827
:1002840086010F746C2FF8A601088604E50CB507E7
:1002940002AC81ED6C60080D09A805E6F780F4E571
:0902A4000CB507DE89817F002200
:1002AD00EFD3940340037FFF22EF232416F8C2AF50
:1002BD00E630E50530E002D2E4D2E2C6D2AF7F00EF
:0702CD0030E2010F02006C9A
:1002D4008FF0E4FFFEE50C232415F8C2A930F70DD6
:1002E4007F08E6600B2DF660325030800730F1064F
:1002F400EDF660277E020830F010C2AFE610E72565
:100304000E30E20CD2AF7F048014C2AFE610E715C2
:1003140054EC4EF6D2AFD2A902009A7F0808EF44FB
:0F03240083F4C2AF56C6D2AFD2A954804FFF2286
:0300000002057086
:0C057000787FE4F6D8FD75816F0205B7B6
:1005FC00C2D5EC30E709B2D5E4C39DFDE49CFCEE1A
:10060C0030E715B2D5E4C39FFFE49EFE120632C359
:10061C00E49DFDE49CFC800312063230D507C3E454
:06062C009FFFE49EFE2288
:10057C0002015EE493A3F8E493A34003F68001F236
:10058C0008DFF48029E493A3F85407240CC8C33380
:10059C00C4540F4420C8834004F456800146F6DF4F
:1005AC00E4800B01020408102040809007D0E47E08
:1005BC00019360BCA3FF543F30E509541FFEE49344
:1005CC00A360010ECF54C025E060A840B8E493A30B
:1005DC00FAE493A3F8E493A3C8C582C8CAC583CA36
:1005EC00F0A3C8C582C8CAC583CADFE9DEE780BEEE
:01082D0000CA
:10063200BC000BBE0029EF8DF084FFADF022E4CCAC
:10064200F875F008EF2FFFEE33FEEC33FCEE9DEC75
:10065200984005FCEE9DFE0FD5F0E9E4CEFD22EDBB
:10066200F8F5F0EE8420D21CFEADF075F008EF2F05
:10067200FFED33FD4007985006D5F0F222C398FDF6
:050682000FD5F0EA2293
:00000001FF
